{
  "contractName": "NodeList",
  "abi": [
    {
      "constant": true,
      "inputs": [
        {
          "name": "",
          "type": "uint256"
        }
      ],
      "name": "nodeList",
      "outputs": [
        {
          "name": "",
          "type": "address"
        }
      ],
      "payable": false,
      "stateMutability": "view",
      "type": "function"
    },
    {
      "constant": true,
      "inputs": [
        {
          "name": "",
          "type": "address"
        }
      ],
      "name": "nodeDetails",
      "outputs": [
        {
          "name": "declaredIp",
          "type": "string"
        },
        {
          "name": "position",
          "type": "uint256"
        }
      ],
      "payable": false,
      "stateMutability": "view",
      "type": "function"
    },
    {
      "inputs": [],
      "payable": false,
      "stateMutability": "nonpayable",
      "type": "constructor"
    },
    {
      "anonymous": false,
      "inputs": [
        {
          "indexed": false,
          "name": "publicKey",
          "type": "address"
        },
        {
          "indexed": false,
          "name": "position",
          "type": "uint256"
        }
      ],
      "name": "NodeListed",
      "type": "event"
    },
    {
      "constant": true,
      "inputs": [],
      "name": "viewNodeList",
      "outputs": [
        {
          "name": "",
          "type": "address[]"
        }
      ],
      "payable": false,
      "stateMutability": "view",
      "type": "function"
    },
    {
      "constant": true,
      "inputs": [],
      "name": "viewNodeListCount",
      "outputs": [
        {
          "name": "",
          "type": "uint256"
        }
      ],
      "payable": false,
      "stateMutability": "view",
      "type": "function"
    },
    {
      "constant": true,
      "inputs": [
        {
          "name": "node",
          "type": "address"
        }
      ],
      "name": "viewNodeDetails",
      "outputs": [
        {
          "name": "declaredIp",
          "type": "string"
        },
        {
          "name": "position",
          "type": "uint256"
        }
      ],
      "payable": false,
      "stateMutability": "view",
      "type": "function"
    },
    {
      "constant": false,
      "inputs": [
        {
          "name": "declaredIp",
          "type": "string"
        }
      ],
      "name": "listNode",
      "outputs": [],
      "payable": false,
      "stateMutability": "nonpayable",
      "type": "function"
    }
  ],
  "bytecode": "0x608060405234801561001057600080fd5b50610855806100206000396000f300608060405260043610610078576000357c0100000000000000000000000000000000000000000000000000000000900463ffffffff168063040718571461007d578063208f2a311461014057806348eec1ec146101ad5780637f7e1e36146101d8578063859da85f14610244578063ed6f79ab14610307575b600080fd5b34801561008957600080fd5b506100be600480360381019080803573ffffffffffffffffffffffffffffffffffffffff169060200190929190505050610342565b6040518080602001838152602001828103825284818151815260200191508051906020019080838360005b838110156101045780820151818401526020810190506100e9565b50505050905090810190601f1680156101315780820380516001836020036101000a031916815260200191505b50935050505060405180910390f35b34801561014c57600080fd5b5061016b6004803603810190808035906020019092919050505061046b565b604051808273ffffffffffffffffffffffffffffffffffffffff1673ffffffffffffffffffffffffffffffffffffffff16815260200191505060405180910390f35b3480156101b957600080fd5b506101c26104a9565b6040518082815260200191505060405180910390f35b3480156101e457600080fd5b506101ed6104b6565b6040518080602001828103825283818151815260200191508051906020019060200280838360005b83811015610230578082015181840152602081019050610215565b505050509050019250505060405180910390f35b34801561025057600080fd5b50610285600480360381019080803573ffffffffffffffffffffffffffffffffffffffff169060200190929190505050610544565b6040518080602001838152602001828103825284818151815260200191508051906020019080838360005b838110156102cb5780820151818401526020810190506102b0565b50505050905090810190601f1680156102f85780820380516001836020036101000a031916815260200191505b50935050505060405180910390f35b34801561031357600080fd5b50610340600480360381019080803590602001908201803590602001919091929391929390505050610600565b005b606060008060008473ffffffffffffffffffffffffffffffffffffffff1673ffffffffffffffffffffffffffffffffffffffff1681526020019081526020016000206000018054600181600116156101000203166002900480601f01602080910402602001604051908101604052809291908181526020018280546001816001161561010002031660029004801561041b5780601f106103f05761010080835404028352916020019161041b565b820191906000526020600020905b8154815290600101906020018083116103fe57829003601f168201915b505050505091506000808473ffffffffffffffffffffffffffffffffffffffff1673ffffffffffffffffffffffffffffffffffffffff168152602001908152602001600020600101549050915091565b60018181548110151561047a57fe5b906000526020600020016000915054906101000a900473ffffffffffffffffffffffffffffffffffffffff1681565b6000600180549050905090565b6060600180548060200260200160405190810160405280929190818152602001828054801561053a57602002820191906000526020600020905b8160009054906101000a900473ffffffffffffffffffffffffffffffffffffffff1673ffffffffffffffffffffffffffffffffffffffff16815260200190600101908083116104f0575b5050505050905090565b6000602052806000526040600020600091509050806000018054600181600116156101000203166002900480601f0160208091040260200160405190810160405280929190818152602001828054600181600116156101000203166002900480156105f05780601f106105c5576101008083540402835291602001916105f0565b820191906000526020600020905b8154815290600101906020018083116105d357829003601f168201915b5050505050908060010154905082565b336001808054905081548110151561061457fe5b9060005260206000200160006101000a81548173ffffffffffffffffffffffffffffffffffffffff021916908373ffffffffffffffffffffffffffffffffffffffff160217905550604080519081016040528083838080601f01602080910402602001604051908101604052809392919081815260200183838082843782019150505050505081526020016001805490508152506000803373ffffffffffffffffffffffffffffffffffffffff1673ffffffffffffffffffffffffffffffffffffffff1681526020019081526020016000206000820151816000019080519060200190610702929190610784565b50602082015181600101559050507fefcfb17cd57f23e1f4a32d6e38cf2a608cccc7db00986211e0ea32e7336b230f33600180549050604051808373ffffffffffffffffffffffffffffffffffffffff1673ffffffffffffffffffffffffffffffffffffffff1681526020018281526020019250505060405180910390a15050565b828054600181600116156101000203166002900490600052602060002090601f016020900481019282601f106107c557805160ff19168380011785556107f3565b828001600101855582156107f3579182015b828111156107f25782518255916020019190600101906107d7565b5b5090506108009190610804565b5090565b61082691905b8082111561082257600081600090555060010161080a565b5090565b905600a165627a7a72305820771211339bcd661253086e9c053292e1db4e30cfb62e5a64ef1e3fcd15c7b3de0029",
  "source": "pragma solidity ^0.4.24;\n\ncontract NodeList {\n  event NodeListed(address publicKey, uint256 position);\n\n  struct Details {\n    string declaredIp;\n    uint256 position;\n  }\n\n  mapping (address => Details) public nodeDetails;\n  address[] public nodeList;\n\n  constructor() public {\n  }\n\n  function viewNodeList() external view  returns (address[]) {\n    return nodeList;\n  }\n\n  function viewNodeListCount() external view  returns (uint256) {\n    return nodeList.length;\n  }\n\n  function viewNodeDetails(address node) external view  returns (string declaredIp, uint256 position) {\n    declaredIp = nodeDetails[node].declaredIp;\n    position = nodeDetails[node].position;\n  }\n\n  function listNode(string declaredIp) external {\n    nodeList[nodeList.length] = msg.sender;\n    nodeDetails[msg.sender] = Details({declaredIp: declaredIp, position: nodeList.length});\n    emit NodeListed(msg.sender, nodeList.length);\n  }\n}",
  "sourcePath": "/Users/zhen/go/src/github.com/YZhenY/DKGNode/solidity/contracts/NodeList.sol",
  "compiler": {
    "name": "solc",
    "version": "0.4.24+commit.e67f0147.Emscripten.clang"
  },
  "schemaVersion": "2.0.1",
  "updatedAt": "2018-10-16T15:58:09.946Z"
}