{
  "contractName": "NodeList",
  "abi": [
    {
      "constant": true,
      "inputs": [
        {
          "name": "",
          "type": "address"
        }
      ],
      "name": "nodeDetails",
      "outputs": [
        {
          "name": "declaredIp",
          "type": "string"
        },
        {
          "name": "position",
          "type": "uint256"
        }
      ],
      "payable": false,
      "stateMutability": "view",
      "type": "function"
    },
    {
      "inputs": [],
      "payable": false,
      "stateMutability": "nonpayable",
      "type": "constructor"
    },
    {
      "anonymous": false,
      "inputs": [
        {
          "indexed": false,
          "name": "publicKey",
          "type": "address"
        },
        {
          "indexed": false,
          "name": "position",
          "type": "uint256"
        }
      ],
      "name": "NodeListed",
      "type": "event"
    },
    {
      "constant": true,
      "inputs": [],
      "name": "viewNodeList",
      "outputs": [
        {
          "name": "",
          "type": "address[]"
        }
      ],
      "payable": false,
      "stateMutability": "view",
      "type": "function"
    },
    {
      "constant": true,
      "inputs": [
        {
          "name": "node",
          "type": "address"
        }
      ],
      "name": "viewNodeDetails",
      "outputs": [
        {
          "name": "declaredIp",
          "type": "string"
        },
        {
          "name": "position",
          "type": "uint256"
        }
      ],
      "payable": false,
      "stateMutability": "view",
      "type": "function"
    },
    {
      "constant": false,
      "inputs": [
        {
          "name": "declaredIp",
          "type": "string"
        }
      ],
      "name": "listNode",
      "outputs": [],
      "payable": false,
      "stateMutability": "nonpayable",
      "type": "function"
    }
  ],
  "bytecode": "0x608060405234801561001057600080fd5b5061075c806100206000396000f300608060405260043610610062576000357c0100000000000000000000000000000000000000000000000000000000900463ffffffff16806304071857146100675780637f7e1e361461012a578063859da85f14610196578063ed6f79ab14610259575b600080fd5b34801561007357600080fd5b506100a8600480360381019080803573ffffffffffffffffffffffffffffffffffffffff169060200190929190505050610294565b6040518080602001838152602001828103825284818151815260200191508051906020019080838360005b838110156100ee5780820151818401526020810190506100d3565b50505050905090810190601f16801561011b5780820380516001836020036101000a031916815260200191505b50935050505060405180910390f35b34801561013657600080fd5b5061013f6103bd565b6040518080602001828103825283818151815260200191508051906020019060200280838360005b83811015610182578082015181840152602081019050610167565b505050509050019250505060405180910390f35b3480156101a257600080fd5b506101d7600480360381019080803573ffffffffffffffffffffffffffffffffffffffff16906020019092919050505061044b565b6040518080602001838152602001828103825284818151815260200191508051906020019080838360005b8381101561021d578082015181840152602081019050610202565b50505050905090810190601f16801561024a5780820380516001836020036101000a031916815260200191505b50935050505060405180910390f35b34801561026557600080fd5b50610292600480360381019080803590602001908201803590602001919091929391929390505050610507565b005b606060008060008473ffffffffffffffffffffffffffffffffffffffff1673ffffffffffffffffffffffffffffffffffffffff1681526020019081526020016000206000018054600181600116156101000203166002900480601f01602080910402602001604051908101604052809291908181526020018280546001816001161561010002031660029004801561036d5780601f106103425761010080835404028352916020019161036d565b820191906000526020600020905b81548152906001019060200180831161035057829003601f168201915b505050505091506000808473ffffffffffffffffffffffffffffffffffffffff1673ffffffffffffffffffffffffffffffffffffffff168152602001908152602001600020600101549050915091565b6060600180548060200260200160405190810160405280929190818152602001828054801561044157602002820191906000526020600020905b8160009054906101000a900473ffffffffffffffffffffffffffffffffffffffff1673ffffffffffffffffffffffffffffffffffffffff16815260200190600101908083116103f7575b5050505050905090565b6000602052806000526040600020600091509050806000018054600181600116156101000203166002900480601f0160208091040260200160405190810160405280929190818152602001828054600181600116156101000203166002900480156104f75780601f106104cc576101008083540402835291602001916104f7565b820191906000526020600020905b8154815290600101906020018083116104da57829003601f168201915b5050505050908060010154905082565b336001808054905081548110151561051b57fe5b9060005260206000200160006101000a81548173ffffffffffffffffffffffffffffffffffffffff021916908373ffffffffffffffffffffffffffffffffffffffff160217905550604080519081016040528083838080601f01602080910402602001604051908101604052809392919081815260200183838082843782019150505050505081526020016001805490508152506000803373ffffffffffffffffffffffffffffffffffffffff1673ffffffffffffffffffffffffffffffffffffffff168152602001908152602001600020600082015181600001908051906020019061060992919061068b565b50602082015181600101559050507fefcfb17cd57f23e1f4a32d6e38cf2a608cccc7db00986211e0ea32e7336b230f33600180549050604051808373ffffffffffffffffffffffffffffffffffffffff1673ffffffffffffffffffffffffffffffffffffffff1681526020018281526020019250505060405180910390a15050565b828054600181600116156101000203166002900490600052602060002090601f016020900481019282601f106106cc57805160ff19168380011785556106fa565b828001600101855582156106fa579182015b828111156106f95782518255916020019190600101906106de565b5b509050610707919061070b565b5090565b61072d91905b80821115610729576000816000905550600101610711565b5090565b905600a165627a7a72305820e26795cc05609b674f1466be81237905d39b3c865c25e3c9d648e4b12f4edd5a0029",
  "source": "pragma solidity ^0.4.24;\n\ncontract NodeList {\n  event NodeListed(address publicKey, uint256 position);\n\n  struct Details {\n    string declaredIp;\n    uint256 position;\n  }\n\n  mapping (address => Details) public nodeDetails;\n  address[] nodeList;\n\n  constructor() public {\n  }\n\n  function viewNodeList() external view  returns (address[]) {\n    return nodeList;\n  }\n\n  function viewNodeDetails(address node) external view  returns (string declaredIp, uint256 position) {\n    declaredIp = nodeDetails[node].declaredIp;\n    position = nodeDetails[node].position;\n  }\n\n  function listNode(string declaredIp) external {\n    nodeList[nodeList.length] = msg.sender;\n    nodeDetails[msg.sender] = Details({declaredIp: declaredIp, position: nodeList.length});\n    emit NodeListed(msg.sender, nodeList.length);\n  }\n}",
  "sourcePath": "/Users/zhen/go/src/github.com/YZhenY/DKGNode/solidity/contracts/NodeList.sol",
  "compiler": {
    "name": "solc",
    "version": "0.4.24+commit.e67f0147.Emscripten.clang"
  },
  "schemaVersion": "2.0.1",
  "updatedAt": "2018-10-15T19:38:12.553Z"
}